{
  "contractName": "FishersContract",
  "abi": [
    {
      "inputs": [],
      "payable": false,
      "stateMutability": "nonpayable",
      "type": "constructor"
    },
    {
      "anonymous": false,
      "inputs": [
        {
          "indexed": true,
          "internalType": "address",
          "name": "fisherman",
          "type": "address"
        },
        {
          "indexed": true,
          "internalType": "uint256",
          "name": "timestamp",
          "type": "uint256"
        },
        {
          "indexed": false,
          "internalType": "string",
          "name": "gpsLocation",
          "type": "string"
        }
      ],
      "name": "DataCaptured",
      "type": "event"
    },
    {
      "anonymous": false,
      "inputs": [
        {
          "indexed": true,
          "internalType": "address",
          "name": "sender",
          "type": "address"
        },
        {
          "indexed": false,
          "internalType": "string",
          "name": "emergencyMessage",
          "type": "string"
        }
      ],
      "name": "EmergencyAlert",
      "type": "event"
    },
    {
      "constant": true,
      "inputs": [
        {
          "internalType": "address",
          "name": "",
          "type": "address"
        },
        {
          "internalType": "uint256",
          "name": "",
          "type": "uint256"
        }
      ],
      "name": "fishermanData",
      "outputs": [
        {
          "internalType": "uint256",
          "name": "timestamp",
          "type": "uint256"
        },
        {
          "internalType": "string",
          "name": "gpsLocation",
          "type": "string"
        },
        {
          "internalType": "uint256",
          "name": "humidity",
          "type": "uint256"
        },
        {
          "internalType": "uint256",
          "name": "salinity",
          "type": "uint256"
        },
        {
          "internalType": "uint256",
          "name": "pH",
          "type": "uint256"
        },
        {
          "internalType": "uint256",
          "name": "oxygenLevel",
          "type": "uint256"
        },
        {
          "internalType": "uint256",
          "name": "chlorophyll",
          "type": "uint256"
        },
        {
          "internalType": "bool",
          "name": "fishExistence",
          "type": "bool"
        },
        {
          "internalType": "bool",
          "name": "emergencyAlert",
          "type": "bool"
        },
        {
          "internalType": "string",
          "name": "emergencyMessage",
          "type": "string"
        }
      ],
      "payable": false,
      "stateMutability": "view",
      "type": "function"
    },
    {
      "constant": true,
      "inputs": [
        {
          "internalType": "address",
          "name": "",
          "type": "address"
        }
      ],
      "name": "isFisherman",
      "outputs": [
        {
          "internalType": "bool",
          "name": "",
          "type": "bool"
        }
      ],
      "payable": false,
      "stateMutability": "view",
      "type": "function"
    },
    {
      "constant": true,
      "inputs": [],
      "name": "marineOffice",
      "outputs": [
        {
          "internalType": "address",
          "name": "",
          "type": "address"
        }
      ],
      "payable": false,
      "stateMutability": "view",
      "type": "function"
    },
    {
      "constant": false,
      "inputs": [],
      "name": "registerAsFisherman",
      "outputs": [],
      "payable": false,
      "stateMutability": "nonpayable",
      "type": "function"
    },
    {
      "constant": false,
      "inputs": [
        {
          "internalType": "string",
          "name": "gpsLocation",
          "type": "string"
        },
        {
          "internalType": "uint256",
          "name": "humidity",
          "type": "uint256"
        },
        {
          "internalType": "uint256",
          "name": "salinity",
          "type": "uint256"
        },
        {
          "internalType": "uint256",
          "name": "pH",
          "type": "uint256"
        },
        {
          "internalType": "uint256",
          "name": "oxygenLevel",
          "type": "uint256"
        },
        {
          "internalType": "uint256",
          "name": "chlorophyll",
          "type": "uint256"
        },
        {
          "internalType": "bool",
          "name": "fishExistence",
          "type": "bool"
        }
      ],
      "name": "captureData",
      "outputs": [],
      "payable": false,
      "stateMutability": "nonpayable",
      "type": "function"
    },
    {
      "constant": false,
      "inputs": [
        {
          "internalType": "string",
          "name": "message",
          "type": "string"
        }
      ],
      "name": "sendEmergencyAlert",
      "outputs": [],
      "payable": false,
      "stateMutability": "nonpayable",
      "type": "function"
    }
  ],
  "bytecode": "0x608060405234801561001057600080fd5b50336000806101000a81548173ffffffffffffffffffffffffffffffffffffffff021916908373ffffffffffffffffffffffffffffffffffffffff160217905550610de3806100606000396000f3fe608060405234801561001057600080fd5b50600436106100625760003560e01c80632012ac60146100675780632b77505c146100715780634c491ddb146100bb5780637d017840146101725780639531236d146101eb578063f868e6ba1461035e575b600080fd5b61006f6103ba565b005b610079610413565b604051808273ffffffffffffffffffffffffffffffffffffffff1673ffffffffffffffffffffffffffffffffffffffff16815260200191505060405180910390f35b610170600480360360e08110156100d157600080fd5b81019080803590602001906401000000008111156100ee57600080fd5b82018360208201111561010057600080fd5b8035906020019184600183028401116401000000008311171561012257600080fd5b90919293919293908035906020019092919080359060200190929190803590602001909291908035906020019092919080359060200190929190803515159060200190929190505050610438565b005b6101e96004803603602081101561018857600080fd5b81019080803590602001906401000000008111156101a557600080fd5b8201836020820111156101b757600080fd5b803590602001918460018302840111640100000000831117156101d957600080fd5b9091929391929390505050610732565b005b6102376004803603604081101561020157600080fd5b81019080803573ffffffffffffffffffffffffffffffffffffffff16906020019092919080359060200190929190505050610a01565b604051808b8152602001806020018a815260200189815260200188815260200187815260200186815260200185151515158152602001841515151581526020018060200183810383528c818151815260200191508051906020019080838360005b838110156102b3578082015181840152602081019050610298565b50505050905090810190601f1680156102e05780820380516001836020036101000a031916815260200191505b50838103825284818151815260200191508051906020019080838360005b838110156103195780820151818401526020810190506102fe565b50505050905090810190601f1680156103465780820380516001836020036101000a031916815260200191505b509c5050505050505050505050505060405180910390f35b6103a06004803603602081101561037457600080fd5b81019080803573ffffffffffffffffffffffffffffffffffffffff169060200190929190505050610bb9565b604051808215151515815260200191505060405180910390f35b60018060003373ffffffffffffffffffffffffffffffffffffffff1673ffffffffffffffffffffffffffffffffffffffff16815260200190815260200160002060006101000a81548160ff021916908315150217905550565b6000809054906101000a900473ffffffffffffffffffffffffffffffffffffffff1681565b600160003373ffffffffffffffffffffffffffffffffffffffff1673ffffffffffffffffffffffffffffffffffffffff16815260200190815260200160002060009054906101000a900460ff166104da576040517f08c379a0000000000000000000000000000000000000000000000000000000008152600401808060200182810382526030815260200180610d7f6030913960400191505060405180910390fd5b6104e2610bd9565b6040518061014001604052804281526020018a8a8080601f016020809104026020016040519081016040528093929190818152602001838380828437600081840152601f19601f8201169050808301925050505050505081526020018881526020018781526020018681526020018581526020018481526020018315158152602001600015158152602001604051806020016040528060008152508152509050600260003373ffffffffffffffffffffffffffffffffffffffff1673ffffffffffffffffffffffffffffffffffffffff1681526020019081526020016000208190806001815401808255809150509060018203906000526020600020906009020160009091929091909150600082015181600001556020820151816001019080519060200190610613929190610c30565b5060408201518160020155606082015181600301556080820151816004015560a0820151816005015560c0820151816006015560e08201518160070160006101000a81548160ff0219169083151502179055506101008201518160070160016101000a81548160ff0219169083151502179055506101208201518160080190805190602001906106a4929190610c30565b5050505080600001513373ffffffffffffffffffffffffffffffffffffffff167fa8f89068978ade7b55dae2fb971e67d841ed225f15cbcdec250a6f8473e216068b8b60405180806020018281038252848482818152602001925080828437600081840152601f19601f820116905080830192505050935050505060405180910390a3505050505050505050565b6000809054906101000a900473ffffffffffffffffffffffffffffffffffffffff1673ffffffffffffffffffffffffffffffffffffffff163373ffffffffffffffffffffffffffffffffffffffff16146107d7576040517f08c379a0000000000000000000000000000000000000000000000000000000008152600401808060200182810382526029815260200180610d566029913960400191505060405180910390fd5b60008090505b600260003373ffffffffffffffffffffffffffffffffffffffff1673ffffffffffffffffffffffffffffffffffffffff1681526020019081526020016000208054905081101561098257600260003373ffffffffffffffffffffffffffffffffffffffff1673ffffffffffffffffffffffffffffffffffffffff168152602001908152602001600020818154811061087157fe5b906000526020600020906009020160070160009054906101000a900460ff1615610975576001600260003373ffffffffffffffffffffffffffffffffffffffff1673ffffffffffffffffffffffffffffffffffffffff16815260200190815260200160002082815481106108e157fe5b906000526020600020906009020160070160016101000a81548160ff0219169083151502179055508282600260003373ffffffffffffffffffffffffffffffffffffffff1673ffffffffffffffffffffffffffffffffffffffff168152602001908152602001600020838154811061095557fe5b90600052602060002090600902016008019190610973929190610cb0565b505b80806001019150506107dd565b503373ffffffffffffffffffffffffffffffffffffffff167f197edd132a025307cb373da82231b7d79e9aad7d844157abe35cf360a1772e34838360405180806020018281038252848482818152602001925080828437600081840152601f19601f820116905080830192505050935050505060405180910390a25050565b60026020528160005260406000208181548110610a1a57fe5b906000526020600020906009020160009150915050806000015490806001018054600181600116156101000203166002900480601f016020809104026020016040519081016040528092919081815260200182805460018160011615610100020316600290048015610acd5780601f10610aa257610100808354040283529160200191610acd565b820191906000526020600020905b815481529060010190602001808311610ab057829003601f168201915b5050505050908060020154908060030154908060040154908060050154908060060154908060070160009054906101000a900460ff16908060070160019054906101000a900460ff1690806008018054600181600116156101000203166002900480601f016020809104026020016040519081016040528092919081815260200182805460018160011615610100020316600290048015610baf5780601f10610b8457610100808354040283529160200191610baf565b820191906000526020600020905b815481529060010190602001808311610b9257829003601f168201915b505050505090508a565b60016020528060005260406000206000915054906101000a900460ff1681565b60405180610140016040528060008152602001606081526020016000815260200160008152602001600081526020016000815260200160008152602001600015158152602001600015158152602001606081525090565b828054600181600116156101000203166002900490600052602060002090601f016020900481019282601f10610c7157805160ff1916838001178555610c9f565b82800160010185558215610c9f579182015b82811115610c9e578251825591602001919060010190610c83565b5b509050610cac9190610d30565b5090565b828054600181600116156101000203166002900490600052602060002090601f016020900481019282601f10610cf157803560ff1916838001178555610d1f565b82800160010185558215610d1f579182015b82811115610d1e578235825591602001919060010190610d03565b5b509050610d2c9190610d30565b5090565b610d5291905b80821115610d4e576000816000905550600101610d36565b5090565b9056fe4f6e6c79204d6172696e65204f66666963652063616e2063616c6c20746869732066756e6374696f6e4f6e6c792072656769737465726564204669736865726d656e2063616e2063616c6c20746869732066756e6374696f6ea265627a7a723158206dd7d22b7cae8aeefab943324fa4791523dad1fc415d1520834be4043875c04364736f6c63430005100032",
  "source": "// SPDX-License-Identifier: MIT\r\npragma solidity 0.5.16;\r\n\r\ncontract FishersContract {\r\n    address public marineOffice;\r\n    mapping(address => bool) public isFisherman;\r\n\r\n    struct DataCapture {\r\n        uint256 timestamp;\r\n        string gpsLocation;\r\n        uint256 humidity;\r\n        uint256 salinity;\r\n        uint256 pH;\r\n        uint256 oxygenLevel;\r\n        uint256 chlorophyll;\r\n        bool fishExistence;\r\n        bool emergencyAlert;\r\n        string emergencyMessage;\r\n    }\r\n\r\n    mapping(address => DataCapture[]) public fishermanData;\r\n\r\n    event DataCaptured(\r\n        address indexed fisherman,\r\n        uint256 indexed timestamp,\r\n        string gpsLocation\r\n    );\r\n\r\n    event EmergencyAlert(\r\n        address indexed sender,\r\n        string emergencyMessage\r\n    );\r\n\r\n    constructor() public {\r\n        marineOffice = msg.sender;\r\n    }\r\n\r\n    modifier onlyMarineOffice() {\r\n        require(msg.sender == marineOffice, \"Only Marine Office can call this function\");\r\n        _;\r\n    }\r\n\r\n    modifier onlyFisherman() {\r\n        require(isFisherman[msg.sender], \"Only registered Fishermen can call this function\");\r\n        _;\r\n    }\r\n\r\n    function registerAsFisherman() external {\r\n        isFisherman[msg.sender] = true;\r\n    }\r\n\r\n    function captureData(\r\n        string calldata gpsLocation,\r\n        uint256 humidity,\r\n        uint256 salinity,\r\n        uint256 pH,\r\n        uint256 oxygenLevel,\r\n        uint256 chlorophyll,\r\n        bool fishExistence\r\n    ) external onlyFisherman {\r\n        DataCapture memory newData = DataCapture(\r\n            block.timestamp,\r\n            gpsLocation,\r\n            humidity,\r\n            salinity,\r\n            pH,\r\n            oxygenLevel,\r\n            chlorophyll,\r\n            fishExistence,\r\n            false,\r\n            \"\"\r\n        );\r\n        fishermanData[msg.sender].push(newData);\r\n\r\n        emit DataCaptured(\r\n            msg.sender,\r\n            newData.timestamp,\r\n            gpsLocation\r\n        );\r\n    }\r\n\r\n    function sendEmergencyAlert(string calldata message) external onlyMarineOffice {\r\n        for (uint256 i = 0; i < fishermanData[msg.sender].length; i++) {\r\n            if (fishermanData[msg.sender][i].fishExistence) {\r\n                fishermanData[msg.sender][i].emergencyAlert = true;\r\n                fishermanData[msg.sender][i].emergencyMessage = message;\r\n            }\r\n        }\r\n\r\n        emit EmergencyAlert(msg.sender, message);\r\n    }\r\n}",
  "sourcePath": "E:\\smartfish\\contracts\\FishersContract.sol",
  "compiler": {
    "name": "solc",
    "version": "0.5.16+commit.9c3226ce.Emscripten.clang"
  },
  "schemaVersion": "3.4.14",
  "updatedAt": "2023-08-05T12:08:14.026Z",
  "networkType": "ethereum",
  "devdoc": {
    "methods": {}
  },
  "userdoc": {
    "methods": {}
  }
}