{
  "contractName": "MarineOfficeContract",
  "abi": [
    {
      "inputs": [],
      "payable": false,
      "stateMutability": "nonpayable",
      "type": "constructor"
    },
    {
      "anonymous": false,
      "inputs": [
        {
          "indexed": true,
          "internalType": "address",
          "name": "fisherman",
          "type": "address"
        },
        {
          "indexed": true,
          "internalType": "uint256",
          "name": "timestamp",
          "type": "uint256"
        },
        {
          "indexed": false,
          "internalType": "string",
          "name": "gpsLocation",
          "type": "string"
        }
      ],
      "name": "DataCaptured",
      "type": "event"
    },
    {
      "anonymous": false,
      "inputs": [
        {
          "indexed": true,
          "internalType": "address",
          "name": "rescueAgent",
          "type": "address"
        },
        {
          "indexed": true,
          "internalType": "address",
          "name": "sender",
          "type": "address"
        },
        {
          "indexed": false,
          "internalType": "string",
          "name": "emergencyMessage",
          "type": "string"
        }
      ],
      "name": "EmergencyAlertSent",
      "type": "event"
    },
    {
      "constant": true,
      "inputs": [
        {
          "internalType": "address",
          "name": "",
          "type": "address"
        },
        {
          "internalType": "uint256",
          "name": "",
          "type": "uint256"
        }
      ],
      "name": "fishermanData",
      "outputs": [
        {
          "internalType": "uint256",
          "name": "timestamp",
          "type": "uint256"
        },
        {
          "internalType": "string",
          "name": "gpsLocation",
          "type": "string"
        },
        {
          "internalType": "uint256",
          "name": "humidity",
          "type": "uint256"
        },
        {
          "internalType": "uint256",
          "name": "salinity",
          "type": "uint256"
        },
        {
          "internalType": "uint256",
          "name": "pH",
          "type": "uint256"
        },
        {
          "internalType": "uint256",
          "name": "oxygenLevel",
          "type": "uint256"
        },
        {
          "internalType": "uint256",
          "name": "chlorophyll",
          "type": "uint256"
        },
        {
          "internalType": "bool",
          "name": "fishExistence",
          "type": "bool"
        },
        {
          "internalType": "bool",
          "name": "emergencyAlert",
          "type": "bool"
        },
        {
          "internalType": "string",
          "name": "emergencyMessage",
          "type": "string"
        }
      ],
      "payable": false,
      "stateMutability": "view",
      "type": "function"
    },
    {
      "constant": true,
      "inputs": [],
      "name": "marineOffice",
      "outputs": [
        {
          "internalType": "address",
          "name": "",
          "type": "address"
        }
      ],
      "payable": false,
      "stateMutability": "view",
      "type": "function"
    },
    {
      "constant": false,
      "inputs": [
        {
          "internalType": "address",
          "name": "fisherman",
          "type": "address"
        },
        {
          "internalType": "string",
          "name": "gpsLocation",
          "type": "string"
        },
        {
          "internalType": "uint256",
          "name": "humidity",
          "type": "uint256"
        },
        {
          "internalType": "uint256",
          "name": "salinity",
          "type": "uint256"
        },
        {
          "internalType": "uint256",
          "name": "pH",
          "type": "uint256"
        },
        {
          "internalType": "uint256",
          "name": "oxygenLevel",
          "type": "uint256"
        },
        {
          "internalType": "uint256",
          "name": "chlorophyll",
          "type": "uint256"
        },
        {
          "internalType": "bool",
          "name": "fishExistence",
          "type": "bool"
        },
        {
          "internalType": "bool",
          "name": "emergencyAlert",
          "type": "bool"
        },
        {
          "internalType": "string",
          "name": "emergencyMessage",
          "type": "string"
        }
      ],
      "name": "captureData",
      "outputs": [],
      "payable": false,
      "stateMutability": "nonpayable",
      "type": "function"
    }
  ],
  "bytecode": "0x608060405234801561001057600080fd5b50336000806101000a81548173ffffffffffffffffffffffffffffffffffffffff021916908373ffffffffffffffffffffffffffffffffffffffff160217905550610a40806100606000396000f3fe608060405234801561001057600080fd5b50600436106100415760003560e01c80632b77505c146100465780635f38f3c2146100905780639531236d146101c9575b600080fd5b61004e61033c565b604051808273ffffffffffffffffffffffffffffffffffffffff1673ffffffffffffffffffffffffffffffffffffffff16815260200191505060405180910390f35b6101c760048036036101408110156100a757600080fd5b81019080803573ffffffffffffffffffffffffffffffffffffffff169060200190929190803590602001906401000000008111156100e457600080fd5b8201836020820111156100f657600080fd5b8035906020019184600183028401116401000000008311171561011857600080fd5b909192939192939080359060200190929190803590602001909291908035906020019092919080359060200190929190803590602001909291908035151590602001909291908035151590602001909291908035906020019064010000000081111561018357600080fd5b82018360208201111561019557600080fd5b803590602001918460018302840111640100000000831117156101b757600080fd5b9091929391929390505050610361565b005b610215600480360360408110156101df57600080fd5b81019080803573ffffffffffffffffffffffffffffffffffffffff1690602001909291908035906020019092919050505061072e565b604051808b8152602001806020018a815260200189815260200188815260200187815260200186815260200185151515158152602001841515151581526020018060200183810383528c818151815260200191508051906020019080838360005b83811015610291578082015181840152602081019050610276565b50505050905090810190601f1680156102be5780820380516001836020036101000a031916815260200191505b50838103825284818151815260200191508051906020019080838360005b838110156102f75780820151818401526020810190506102dc565b50505050905090810190601f1680156103245780820380516001836020036101000a031916815260200191505b509c5050505050505050505050505060405180910390f35b6000809054906101000a900473ffffffffffffffffffffffffffffffffffffffff1681565b6000809054906101000a900473ffffffffffffffffffffffffffffffffffffffff1673ffffffffffffffffffffffffffffffffffffffff163373ffffffffffffffffffffffffffffffffffffffff1614610406576040517f08c379a00000000000000000000000000000000000000000000000000000000081526004018080602001828103825260298152602001806109e36029913960400191505060405180910390fd5b61040e6108e6565b6040518061014001604052804281526020018d8d8080601f016020809104026020016040519081016040528093929190818152602001838380828437600081840152601f19601f8201169050808301925050505050505081526020018b81526020018a81526020018981526020018881526020018781526020018615158152602001851515815260200184848080601f016020809104026020016040519081016040528093929190818152602001838380828437600081840152601f19601f820116905080830192505050505050508152509050600160008e73ffffffffffffffffffffffffffffffffffffffff1673ffffffffffffffffffffffffffffffffffffffff168152602001908152602001600020819080600181540180825580915050906001820390600052602060002090600902016000909192909190915060008201518160000155602082015181600101908051906020019061057392919061093d565b5060408201518160020155606082015181600301556080820151816004015560a0820151816005015560c0820151816006015560e08201518160070160006101000a81548160ff0219169083151502179055506101008201518160070160016101000a81548160ff02191690831515021790555061012082015181600801908051906020019061060492919061093d565b5050505080600001518d73ffffffffffffffffffffffffffffffffffffffff167fa8f89068978ade7b55dae2fb971e67d841ed225f15cbcdec250a6f8473e216068e8e60405180806020018281038252848482818152602001925080828437600081840152601f19601f820116905080830192505050935050505060405180910390a3831561071f578c73ffffffffffffffffffffffffffffffffffffffff163373ffffffffffffffffffffffffffffffffffffffff167f02e260ffa0df5d4c40bd7c9c4b2a94ccabf34f1f5263c979852c550581f05ebe858560405180806020018281038252848482818152602001925080828437600081840152601f19601f820116905080830192505050935050505060405180910390a35b50505050505050505050505050565b6001602052816000526040600020818154811061074757fe5b906000526020600020906009020160009150915050806000015490806001018054600181600116156101000203166002900480601f0160208091040260200160405190810160405280929190818152602001828054600181600116156101000203166002900480156107fa5780601f106107cf576101008083540402835291602001916107fa565b820191906000526020600020905b8154815290600101906020018083116107dd57829003601f168201915b5050505050908060020154908060030154908060040154908060050154908060060154908060070160009054906101000a900460ff16908060070160019054906101000a900460ff1690806008018054600181600116156101000203166002900480601f0160208091040260200160405190810160405280929190818152602001828054600181600116156101000203166002900480156108dc5780601f106108b1576101008083540402835291602001916108dc565b820191906000526020600020905b8154815290600101906020018083116108bf57829003601f168201915b505050505090508a565b60405180610140016040528060008152602001606081526020016000815260200160008152602001600081526020016000815260200160008152602001600015158152602001600015158152602001606081525090565b828054600181600116156101000203166002900490600052602060002090601f016020900481019282601f1061097e57805160ff19168380011785556109ac565b828001600101855582156109ac579182015b828111156109ab578251825591602001919060010190610990565b5b5090506109b991906109bd565b5090565b6109df91905b808211156109db5760008160009055506001016109c3565b5090565b9056fe4f6e6c79204d6172696e65204f66666963652063616e2063616c6c20746869732066756e6374696f6ea265627a7a72315820baca4c78e0f48f59d2b78e19bd821e38279317be004925aa172afb488dc536f664736f6c63430005100032",
  "source": "// SPDX-License-Identifier: MIT\r\npragma solidity 0.5.16;\r\n\r\ncontract MarineOfficeContract {\r\n    address public marineOffice;\r\n\r\n    struct DataCapture {\r\n        uint256 timestamp;\r\n        string gpsLocation;\r\n        uint256 humidity;\r\n        uint256 salinity;\r\n        uint256 pH;\r\n        uint256 oxygenLevel;\r\n        uint256 chlorophyll;\r\n        bool fishExistence;\r\n        bool emergencyAlert;\r\n        string emergencyMessage;\r\n    }\r\n\r\n    mapping(address => DataCapture[]) public fishermanData;\r\n\r\n    event DataCaptured(\r\n        address indexed fisherman,\r\n        uint256 indexed timestamp,\r\n        string gpsLocation\r\n    );\r\n\r\n    event EmergencyAlertSent(\r\n        address indexed rescueAgent,\r\n        address indexed sender,\r\n        string emergencyMessage\r\n    );\r\n\r\n    constructor() public {\r\n        marineOffice = msg.sender;\r\n    }\r\n\r\n    modifier onlyMarineOffice() {\r\n        require(msg.sender == marineOffice, \"Only Marine Office can call this function\");\r\n        _;\r\n    }\r\n\r\n    function captureData(\r\n        address fisherman,\r\n        string calldata gpsLocation,\r\n        uint256 humidity,\r\n        uint256 salinity,\r\n        uint256 pH,\r\n        uint256 oxygenLevel,\r\n        uint256 chlorophyll,\r\n        bool fishExistence,\r\n        bool emergencyAlert,\r\n        string calldata emergencyMessage\r\n    ) external onlyMarineOffice {\r\n        DataCapture memory newData = DataCapture(\r\n            block.timestamp,\r\n            gpsLocation,\r\n            humidity,\r\n            salinity,\r\n            pH,\r\n            oxygenLevel,\r\n            chlorophyll,\r\n            fishExistence,\r\n            emergencyAlert,\r\n            emergencyMessage\r\n        );\r\n        fishermanData[fisherman].push(newData);\r\n\r\n        emit DataCaptured(\r\n            fisherman,\r\n            newData.timestamp,\r\n            gpsLocation\r\n        );\r\n\r\n        if (emergencyAlert) {\r\n            // Envoyer une alerte d'urgence aux Agents de secours\r\n            emit EmergencyAlertSent(msg.sender, fisherman, emergencyMessage);\r\n        }\r\n    }\r\n}",
  "sourcePath": "E:\\smartfish\\contracts\\MarineOfficeContract.sol",
  "compiler": {
    "name": "solc",
    "version": "0.5.16+commit.9c3226ce.Emscripten.clang"
  },
  "schemaVersion": "3.4.14",
  "updatedAt": "2023-08-05T12:08:14.030Z",
  "networkType": "ethereum",
  "devdoc": {
    "methods": {}
  },
  "userdoc": {
    "methods": {}
  }
}