{
  "contractName": "RescueAgentsContract",
  "abi": [
    {
      "inputs": [],
      "payable": false,
      "stateMutability": "nonpayable",
      "type": "constructor"
    },
    {
      "anonymous": false,
      "inputs": [
        {
          "indexed": true,
          "internalType": "address",
          "name": "rescueAgent",
          "type": "address"
        },
        {
          "indexed": true,
          "internalType": "address",
          "name": "sender",
          "type": "address"
        },
        {
          "indexed": false,
          "internalType": "string",
          "name": "emergencyMessage",
          "type": "string"
        }
      ],
      "name": "EmergencyAlertReceived",
      "type": "event"
    },
    {
      "constant": true,
      "inputs": [
        {
          "internalType": "address",
          "name": "",
          "type": "address"
        }
      ],
      "name": "isRescueAgent",
      "outputs": [
        {
          "internalType": "bool",
          "name": "",
          "type": "bool"
        }
      ],
      "payable": false,
      "stateMutability": "view",
      "type": "function"
    },
    {
      "constant": true,
      "inputs": [],
      "name": "marineOffice",
      "outputs": [
        {
          "internalType": "address",
          "name": "",
          "type": "address"
        }
      ],
      "payable": false,
      "stateMutability": "view",
      "type": "function"
    },
    {
      "constant": true,
      "inputs": [
        {
          "internalType": "address",
          "name": "",
          "type": "address"
        },
        {
          "internalType": "uint256",
          "name": "",
          "type": "uint256"
        }
      ],
      "name": "rescueAgentAlerts",
      "outputs": [
        {
          "internalType": "address",
          "name": "sender",
          "type": "address"
        },
        {
          "internalType": "string",
          "name": "emergencyMessage",
          "type": "string"
        }
      ],
      "payable": false,
      "stateMutability": "view",
      "type": "function"
    },
    {
      "constant": false,
      "inputs": [],
      "name": "registerAsRescueAgent",
      "outputs": [],
      "payable": false,
      "stateMutability": "nonpayable",
      "type": "function"
    },
    {
      "constant": false,
      "inputs": [
        {
          "internalType": "address",
          "name": "sender",
          "type": "address"
        },
        {
          "internalType": "string",
          "name": "emergencyMessage",
          "type": "string"
        }
      ],
      "name": "receiveEmergencyAlert",
      "outputs": [],
      "payable": false,
      "stateMutability": "nonpayable",
      "type": "function"
    }
  ],
  "bytecode": "0x608060405234801561001057600080fd5b50336000806101000a81548173ffffffffffffffffffffffffffffffffffffffff021916908373ffffffffffffffffffffffffffffffffffffffff1602179055506107f5806100606000396000f3fe608060405234801561001057600080fd5b50600436106100575760003560e01c80632b77505c1461005c5780633e58a84e146100a6578063488b4295146100b0578063694ff9b51461010c5780636a2bf9e314610206575b600080fd5b61006461029f565b604051808273ffffffffffffffffffffffffffffffffffffffff1673ffffffffffffffffffffffffffffffffffffffff16815260200191505060405180910390f35b6100ae6102c4565b005b6100f2600480360360208110156100c657600080fd5b81019080803573ffffffffffffffffffffffffffffffffffffffff16906020019092919050505061031d565b604051808215151515815260200191505060405180910390f35b6101586004803603604081101561012257600080fd5b81019080803573ffffffffffffffffffffffffffffffffffffffff1690602001909291908035906020019092919050505061033d565b604051808373ffffffffffffffffffffffffffffffffffffffff1673ffffffffffffffffffffffffffffffffffffffff16815260200180602001828103825283818151815260200191508051906020019080838360005b838110156101ca5780820151818401526020810190506101af565b50505050905090810190601f1680156101f75780820380516001836020036101000a031916815260200191505b50935050505060405180910390f35b61029d6004803603604081101561021c57600080fd5b81019080803573ffffffffffffffffffffffffffffffffffffffff1690602001909291908035906020019064010000000081111561025957600080fd5b82018360208201111561026b57600080fd5b8035906020019184600183028401116401000000008311171561028d57600080fd5b9091929391929390505050610433565b005b6000809054906101000a900473ffffffffffffffffffffffffffffffffffffffff1681565b60018060003373ffffffffffffffffffffffffffffffffffffffff1673ffffffffffffffffffffffffffffffffffffffff16815260200190815260200160002060006101000a81548160ff021916908315150217905550565b60016020528060005260406000206000915054906101000a900460ff1681565b6002602052816000526040600020818154811061035657fe5b9060005260206000209060020201600091509150508060000160009054906101000a900473ffffffffffffffffffffffffffffffffffffffff1690806001018054600181600116156101000203166002900480601f0160208091040260200160405190810160405280929190818152602001828054600181600116156101000203166002900480156104295780601f106103fe57610100808354040283529160200191610429565b820191906000526020600020905b81548152906001019060200180831161040c57829003601f168201915b5050505050905082565b600160003373ffffffffffffffffffffffffffffffffffffffff1673ffffffffffffffffffffffffffffffffffffffff16815260200190815260200160002060009054906101000a900460ff166104d5576040517f08c379a000000000000000000000000000000000000000000000000000000000815260040180806020018281038252603481526020018061078d6034913960400191505060405180910390fd5b6104dd6106b7565b60405180604001604052808573ffffffffffffffffffffffffffffffffffffffff16815260200184848080601f016020809104026020016040519081016040528093929190818152602001838380828437600081840152601f19601f820116905080830192505050505050508152509050600260003373ffffffffffffffffffffffffffffffffffffffff1673ffffffffffffffffffffffffffffffffffffffff168152602001908152602001600020819080600181540180825580915050906001820390600052602060002090600202016000909192909190915060008201518160000160006101000a81548173ffffffffffffffffffffffffffffffffffffffff021916908373ffffffffffffffffffffffffffffffffffffffff160217905550602082015181600101908051906020019061061c9291906106e7565b505050508373ffffffffffffffffffffffffffffffffffffffff163373ffffffffffffffffffffffffffffffffffffffff167f6084cd4c24cd1f8eb936d1a165a40f04440970eee72a2a9a07df609d8aba4db0858560405180806020018281038252848482818152602001925080828437600081840152601f19601f820116905080830192505050935050505060405180910390a350505050565b6040518060400160405280600073ffffffffffffffffffffffffffffffffffffffff168152602001606081525090565b828054600181600116156101000203166002900490600052602060002090601f016020900481019282601f1061072857805160ff1916838001178555610756565b82800160010185558215610756579182015b8281111561075557825182559160200191906001019061073a565b5b5090506107639190610767565b5090565b61078991905b8082111561078557600081600090555060010161076d565b5090565b9056fe4f6e6c79207265676973746572656420526573637565204167656e74732063616e2063616c6c20746869732066756e6374696f6ea265627a7a72315820dd3ab11e0e2972cce2ddcb3bf34f46684ff71760f1e1f0a3124178c054fd9c3c64736f6c63430005100032",
  "source": "// SPDX-License-Identifier: MIT\r\npragma solidity 0.5.16;\r\n\r\ncontract RescueAgentsContract {\r\n    address public marineOffice;\r\n    mapping(address => bool) public isRescueAgent;\r\n\r\n    struct Alert {\r\n        address sender;\r\n        string emergencyMessage;\r\n    }\r\n\r\n    mapping(address => Alert[]) public rescueAgentAlerts;\r\n\r\n    event EmergencyAlertReceived(\r\n        address indexed rescueAgent,\r\n        address indexed sender,\r\n        string emergencyMessage\r\n    );\r\n\r\n    constructor  () public {\r\n        marineOffice = msg.sender;\r\n    }\r\n\r\n    modifier onlyMarineOffice() {\r\n        require(msg.sender == marineOffice, \"Only Marine Office can call this function\");\r\n        _;\r\n    }\r\n\r\n    modifier onlyRescueAgent() {\r\n        require(isRescueAgent[msg.sender], \"Only registered Rescue Agents can call this function\");\r\n        _;\r\n    }\r\n\r\n    function registerAsRescueAgent() external {\r\n        isRescueAgent[msg.sender] = true;\r\n    }\r\n\r\n    function receiveEmergencyAlert(address sender, string calldata emergencyMessage) external onlyRescueAgent {\r\n        Alert memory newAlert = Alert(sender, emergencyMessage);\r\n        rescueAgentAlerts[msg.sender].push(newAlert);\r\n\r\n        emit EmergencyAlertReceived(\r\n            msg.sender,\r\n            sender,\r\n            emergencyMessage\r\n        );\r\n    }\r\n}",
  "sourcePath": "E:\\smartfish\\contracts\\RescueAgentsContract.sol",
  "compiler": {
    "name": "solc",
    "version": "0.5.16+commit.9c3226ce.Emscripten.clang"
  },
  "schemaVersion": "3.4.14",
  "updatedAt": "2023-08-05T12:08:14.024Z",
  "networkType": "ethereum",
  "devdoc": {
    "methods": {}
  },
  "userdoc": {
    "methods": {}
  }
}